:020020003B00A3
:16000000000081091E170810FE1482006F1D1800FF121118121877
:200024000217C00519180017E000000902171C10800B15180417C2050517C70583098809C9
:16004400BB17C405AA17C90586098B090117C5050117CA05111867
:020022005B1968
:20005A00230EB10030159100C20732000117C00533000111200C3B18C00A3618B000400723
:20007A009000C70732000117C00533000111200C4818C00A4318B000400790003A00CC076F
:20009A00DE05CD079E07DF05CE079F07E005CF07A0073A00DE071B001B001E06021002108C
:2000BA00DF05C005E100E0050114E105C005E0071E000F1401148005E0071A001A001A0000
:2000DA0001148005E0071A001A0001148007E205E007E305A30ADF07C005E307E000E207F4
:2000FA001A0000171C0080146307E405DF07C005E407E0000C171E06C005E407E000DE0780
:20011A0002100C103200DF07C005E100C0053300C009E000E1073A0090094C1CC005D00779
:20013A004006200DA7189E09571C0117DE05571C10099A183A00DE071B001B001E06021095
:20015A00DF050110E005C005E1000012B518C918DF07C005E10032000117C0053300011165
:20017A00200CC118C00ABC18B00040079000E007C0050017E000DD18DF07C005E1003200E5
:20019A000117C00533000111200CD518C00AD018000AB00000079000E007C0050117E00063
:2001BA003A009209D2070711200DEF18D107DE05A81C8009C0070009D8120000200CE7183E
:2001DA001209DF183A00D3071B001B00130602100310D405D307DE05571CD505D50AD50ACA
:2001FA00D307DE05571C1B005507D605D307DE05571C5607D705D407C005D707E000D707BE
:20021A000210C005D407C009E0003A009809D8070211200D5A19D8071B001B0018060210B7
:20023A00D9050410C005E1000110DA05E000D9070310C005E100C005DA074006200C58191A
:20025A00D9070110DB05C005E100001235194919D907C005E10032000117C0053300011171
:20027A00200C4119C00A3C19B00040079000DB07C0050017E0004C19D807D105DE1CD807A7
:20029A00D305F01CD8071B001B00180602100410C0050017E000180914193A009C099D0978
:2002BA002D1C991CDD07C005DC071C091D083A110A17C009C006200C5F199C099D09131D36
:0402DA005F193A006E
:0202DE0000011D
:00000001FF
