:020020007B0063
:14000000000001131E2F0828FE2C82017039002B1230113057
:20002400022F800B1930002F80030012022F1C2800171530042F820B052F870B031308136B
:16004400BB2F840BAA2F890B06130B13012F850B012F8A0B1130C3
:020022005C314F
:20005A00431CC301302D8301D101302D9101820F7200012F800B7300012940183E3080150B
:20007A003930D001800E9001870F7200012F800B7300012940184B3080154630D001800E70
:20009A0090017A008C0F9E0B8D0F1E0F9F0B8E0F1F0FA00B8F0F200F7A009E0F6B006B0044
:2000BA001E0C022802289F0B800B8103A00B012CA10B800BA00F6E000F2C012C000BA00FA1
:2000DA006A006A006A00012C000BA00F6A006A00012C000FA20BA00FA30B23159F0F800B56
:2000FA00A30F8003A20F6A00002F6C00802CA30EA40B9F0F800BA40F80030C2F1E0C800B90
:20011A00A40F80039E0F02280C2872009F0F800B8103800B730080138003A10F7A001013F4
:20013A004F38800B900F800C401AAA301E135A38012F9E0B5A3810129D307A009E0F6B0085
:20015A006B001E0C02289F0B0128A00B800B8103002BCB309F0F800B81037200012F800B29
:20017A00730001294018C3308015BE30D001800E9001A00F800B002F8003DF309F0F800BD6
:20019A0081037200012F800B730001294018D7308015D2300014D001000E9001A00F800B43
:2001BA00012F80037A001213920F0729401AF130910F9E0BAB380013800F0012D82A0000A5
:2001DA004018E9301212E1307A00930F6B006B00130C02280328940B930F9E0B5A38950BDD
:2001FA0095159515930F9E0B5A386B00950E960B930F9E0B5A38960E970B940F800B970F0E
:20021A008003970F0228800B940F801380037A001813980F0229401A5B31980F6B006B0053
:20023A00180C0228990B0428800B810301289A0B8003990F0328800B8103800B9A0F800C84
:20025A0040185931990F01289B0B800B8103002B4A31990F800B81037200012F800B73001F
:20027A0001294018423180153D31D001800E90019B0F800B002F80034D31980F910BE038BC
:20029A00980F930BF238980F6B006B00180C02280428800B002F8003181216317A001C1387
:2002BA001D132D389C389D0F800B9C0F1C121D103A290A2F8013800D401860311C131D137A
:0602DA00153960317A00C5
:0202E00000021A
:00000001FF
